{
  "_format": "hh-sol-artifact-1",
  "contractName": "AIModelMarketplace",
  "sourceName": "contracts/AIModelMarketplace.sol",
  "abi": [
    {
      "inputs": [
        {
          "internalType": "uint256",
          "name": "modelId",
          "type": "uint256"
        }
      ],
      "name": "getModelDetails",
      "outputs": [
        {
          "internalType": "string",
          "name": "",
          "type": "string"
        },
        {
          "internalType": "string",
          "name": "",
          "type": "string"
        },
        {
          "internalType": "uint256",
          "name": "",
          "type": "uint256"
        },
        {
          "internalType": "address",
          "name": "",
          "type": "address"
        },
        {
          "internalType": "uint8",
          "name": "",
          "type": "uint8"
        }
      ],
      "stateMutability": "view",
      "type": "function"
    },
    {
      "inputs": [
        {
          "internalType": "uint256",
          "name": "",
          "type": "uint256"
        },
        {
          "internalType": "address",
          "name": "",
          "type": "address"
        }
      ],
      "name": "hasPurchased",
      "outputs": [
        {
          "internalType": "bool",
          "name": "",
          "type": "bool"
        }
      ],
      "stateMutability": "view",
      "type": "function"
    },
    {
      "inputs": [
        {
          "internalType": "string",
          "name": "name",
          "type": "string"
        },
        {
          "internalType": "string",
          "name": "description",
          "type": "string"
        },
        {
          "internalType": "uint256",
          "name": "price",
          "type": "uint256"
        }
      ],
      "name": "listModel",
      "outputs": [],
      "stateMutability": "nonpayable",
      "type": "function"
    },
    {
      "inputs": [],
      "name": "modelCount",
      "outputs": [
        {
          "internalType": "uint256",
          "name": "",
          "type": "uint256"
        }
      ],
      "stateMutability": "view",
      "type": "function"
    },
    {
      "inputs": [
        {
          "internalType": "uint256",
          "name": "",
          "type": "uint256"
        }
      ],
      "name": "models",
      "outputs": [
        {
          "internalType": "string",
          "name": "name",
          "type": "string"
        },
        {
          "internalType": "string",
          "name": "description",
          "type": "string"
        },
        {
          "internalType": "uint256",
          "name": "price",
          "type": "uint256"
        },
        {
          "internalType": "address payable",
          "name": "creator",
          "type": "address"
        },
        {
          "internalType": "uint8",
          "name": "totalRatings",
          "type": "uint8"
        },
        {
          "internalType": "uint8",
          "name": "totalUsersRated",
          "type": "uint8"
        }
      ],
      "stateMutability": "view",
      "type": "function"
    },
    {
      "inputs": [
        {
          "internalType": "uint256",
          "name": "modelId",
          "type": "uint256"
        }
      ],
      "name": "purchaseModel",
      "outputs": [],
      "stateMutability": "payable",
      "type": "function"
    },
    {
      "inputs": [
        {
          "internalType": "uint256",
          "name": "modelId",
          "type": "uint256"
        },
        {
          "internalType": "uint8",
          "name": "rating",
          "type": "uint8"
        }
      ],
      "name": "rateModel",
      "outputs": [],
      "stateMutability": "nonpayable",
      "type": "function"
    },
    {
      "inputs": [],
      "name": "withdrawFunds",
      "outputs": [],
      "stateMutability": "nonpayable",
      "type": "function"
    }
  ],
  "bytecode": "0x608060405234801561001057600080fd5b5061167f806100206000396000f3fe60806040526004361061007b5760003560e01c80636a030ca91161004e5780636a030ca91461012a578063c6a645fe1461016c578063dc74686214610197578063dc9da2f8146101b35761007b565b806312ee1c0e146100805780631c788a9a146100a957806324600fc3146100d257806331fc042f146100e9575b600080fd5b34801561008c57600080fd5b506100a760048036038101906100a29190610d6e565b6101f0565b005b3480156100b557600080fd5b506100d060048036038101906100cb9190610e52565b6103c3565b005b3480156100de57600080fd5b506100e7610587565b005b3480156100f557600080fd5b50610110600480360381019061010b9190610ded565b6105d0565b6040516101219594939291906111a8565b60405180910390f35b34801561013657600080fd5b50610151600480360381019061014c9190610ded565b610853565b60405161016396959493929190611139565b60405180910390f35b34801561017857600080fd5b506101816109d9565b60405161018e91906112e9565b60405180910390f35b6101b160048036038101906101ac9190610ded565b6109df565b005b3480156101bf57600080fd5b506101da60048036038101906101d59190610e16565b610bf5565b6040516101e7919061111e565b60405180910390f35b6000835111610234576040517f08c379a000000000000000000000000000000000000000000000000000000000815260040161022b906112c9565b60405180910390fd5b60008111610277576040517f08c379a000000000000000000000000000000000000000000000000000000000815260040161026e90611209565b60405180910390fd5b6040518060c001604052808481526020018381526020018281526020013373ffffffffffffffffffffffffffffffffffffffff168152602001600060ff168152602001600060ff16815250600080600154815260200190815260200160002060008201518160000190805190602001906102f2929190610c24565b50602082015181600101908051906020019061030f929190610c24565b506040820151816002015560608201518160030160006101000a81548173ffffffffffffffffffffffffffffffffffffffff021916908373ffffffffffffffffffffffffffffffffffffffff16021790555060808201518160030160146101000a81548160ff021916908360ff16021790555060a08201518160030160156101000a81548160ff021916908360ff160217905550905050600160008154809291906103b9906114c4565b9190505550505050565b6001548210610407576040517f08c379a00000000000000000000000000000000000000000000000000000000081526004016103fe90611289565b60405180910390fd5b60008160ff1611801561041e575060058160ff1611155b61045d576040517f08c379a0000000000000000000000000000000000000000000000000000000008152600401610454906112a9565b60405180910390fd5b6002600083815260200190815260200160002060003373ffffffffffffffffffffffffffffffffffffffff1673ffffffffffffffffffffffffffffffffffffffff16815260200190815260200160002060009054906101000a900460ff166104fa576040517f08c379a00000000000000000000000000000000000000000000000000000000081526004016104f190611269565b60405180910390fd5b60008060008481526020019081526020016000209050818160030160148282829054906101000a900460ff166105309190611381565b92506101000a81548160ff021916908360ff16021790555080600301601581819054906101000a900460ff16809291906105699061150d565b91906101000a81548160ff021916908360ff16021790555050505050565b3373ffffffffffffffffffffffffffffffffffffffff166108fc479081150290604051600060405180830381858888f193505050501580156105cd573d6000803e3d6000fd5b50565b6060806000806000600154861061061c576040517f08c379a000000000000000000000000000000000000000000000000000000000815260040161061390611289565b60405180910390fd5b60008060008881526020019081526020016000206040518060c001604052908160008201805461064b90611492565b80601f016020809104026020016040519081016040528092919081815260200182805461067790611492565b80156106c45780601f10610699576101008083540402835291602001916106c4565b820191906000526020600020905b8154815290600101906020018083116106a757829003601f168201915b505050505081526020016001820180546106dd90611492565b80601f016020809104026020016040519081016040528092919081815260200182805461070990611492565b80156107565780601f1061072b57610100808354040283529160200191610756565b820191906000526020600020905b81548152906001019060200180831161073957829003601f168201915b50505050508152602001600282015481526020016003820160009054906101000a900473ffffffffffffffffffffffffffffffffffffffff1673ffffffffffffffffffffffffffffffffffffffff1673ffffffffffffffffffffffffffffffffffffffff1681526020016003820160149054906101000a900460ff1660ff1660ff1681526020016003820160159054906101000a900460ff1660ff1660ff168152505090506000808260a0015160ff1611610812576000610827565b8160a00151826080015161082691906113b8565b5b905081600001518260200151836040015184606001518496509650965096509650505091939590929450565b600060205280600052604060002060009150905080600001805461087690611492565b80601f01602080910402602001604051908101604052809291908181526020018280546108a290611492565b80156108ef5780601f106108c4576101008083540402835291602001916108ef565b820191906000526020600020905b8154815290600101906020018083116108d257829003601f168201915b50505050509080600101805461090490611492565b80601f016020809104026020016040519081016040528092919081815260200182805461093090611492565b801561097d5780601f106109525761010080835404028352916020019161097d565b820191906000526020600020905b81548152906001019060200180831161096057829003601f168201915b5050505050908060020154908060030160009054906101000a900473ffffffffffffffffffffffffffffffffffffffff16908060030160149054906101000a900460ff16908060030160159054906101000a900460ff16905086565b60015481565b6001548110610a23576040517f08c379a0000000000000000000000000000000000000000000000000000000008152600401610a1a90611289565b60405180910390fd5b6000806000838152602001908152602001600020905080600201543414610a7f576040517f08c379a0000000000000000000000000000000000000000000000000000000008152600401610a7690611249565b60405180910390fd5b6002600083815260200190815260200160002060003373ffffffffffffffffffffffffffffffffffffffff1673ffffffffffffffffffffffffffffffffffffffff16815260200190815260200160002060009054906101000a900460ff1615610b1d576040517f08c379a0000000000000000000000000000000000000000000000000000000008152600401610b1490611229565b60405180910390fd5b8060030160009054906101000a900473ffffffffffffffffffffffffffffffffffffffff1673ffffffffffffffffffffffffffffffffffffffff166108fc349081150290604051600060405180830381858888f19350505050158015610b87573d6000803e3d6000fd5b5060016002600084815260200190815260200160002060003373ffffffffffffffffffffffffffffffffffffffff1673ffffffffffffffffffffffffffffffffffffffff16815260200190815260200160002060006101000a81548160ff0219169083151502179055505050565b60026020528160005260406000206020528060005260406000206000915091509054906101000a900460ff1681565b828054610c3090611492565b90600052602060002090601f016020900481019282610c525760008555610c99565b82601f10610c6b57805160ff1916838001178555610c99565b82800160010185558215610c99579182015b82811115610c98578251825591602001919060010190610c7d565b5b509050610ca69190610caa565b5090565b5b80821115610cc3576000816000905550600101610cab565b5090565b6000610cda610cd584611335565b611304565b905082815260208101848484011115610cf257600080fd5b610cfd848285611450565b509392505050565b600081359050610d1481611604565b92915050565b600082601f830112610d2b57600080fd5b8135610d3b848260208601610cc7565b91505092915050565b600081359050610d538161161b565b92915050565b600081359050610d6881611632565b92915050565b600080600060608486031215610d8357600080fd5b600084013567ffffffffffffffff811115610d9d57600080fd5b610da986828701610d1a565b935050602084013567ffffffffffffffff811115610dc657600080fd5b610dd286828701610d1a565b9250506040610de386828701610d44565b9150509250925092565b600060208284031215610dff57600080fd5b6000610e0d84828501610d44565b91505092915050565b60008060408385031215610e2957600080fd5b6000610e3785828601610d44565b9250506020610e4885828601610d05565b9150509250929050565b60008060408385031215610e6557600080fd5b6000610e7385828601610d44565b9250506020610e8485828601610d59565b9150509250929050565b610e97816113fb565b82525050565b610ea6816113e9565b82525050565b610eb58161140d565b82525050565b6000610ec682611365565b610ed08185611370565b9350610ee081856020860161145f565b610ee9816115f3565b840191505092915050565b6000610f01601f83611370565b91507f5072696365206d7573742062652067726561746572207468616e207a65726f006000830152602082019050919050565b6000610f41602583611370565b91507f596f75206861766520616c72656164792070757263686173656420746869732060008301527f6d6f64656c0000000000000000000000000000000000000000000000000000006020830152604082019050919050565b6000610fa7601883611370565b91507f496e636f7272656374207061796d656e7420616d6f756e7400000000000000006000830152602082019050919050565b6000610fe7602183611370565b91507f596f75206d75737420707572636861736520746865206d6f64656c206669727360008301527f74000000000000000000000000000000000000000000000000000000000000006020830152604082019050919050565b600061104d601483611370565b91507f4d6f64656c20646f6573206e6f742065786973740000000000000000000000006000830152602082019050919050565b600061108d601e83611370565b91507f526174696e67206d757374206265206265747765656e203120616e64203500006000830152602082019050919050565b60006110cd601083611370565b91507f4e616d65206973207265717569726564000000000000000000000000000000006000830152602082019050919050565b61110981611439565b82525050565b61111881611443565b82525050565b60006020820190506111336000830184610eac565b92915050565b600060c08201905081810360008301526111538189610ebb565b905081810360208301526111678188610ebb565b90506111766040830187611100565b6111836060830186610e8e565b611190608083018561110f565b61119d60a083018461110f565b979650505050505050565b600060a08201905081810360008301526111c28188610ebb565b905081810360208301526111d68187610ebb565b90506111e56040830186611100565b6111f26060830185610e9d565b6111ff608083018461110f565b9695505050505050565b6000602082019050818103600083015261122281610ef4565b9050919050565b6000602082019050818103600083015261124281610f34565b9050919050565b6000602082019050818103600083015261126281610f9a565b9050919050565b6000602082019050818103600083015261128281610fda565b9050919050565b600060208201905081810360008301526112a281611040565b9050919050565b600060208201905081810360008301526112c281611080565b9050919050565b600060208201905081810360008301526112e2816110c0565b9050919050565b60006020820190506112fe6000830184611100565b92915050565b6000604051905081810181811067ffffffffffffffff8211171561132b5761132a6115c4565b5b8060405250919050565b600067ffffffffffffffff8211156113505761134f6115c4565b5b601f19601f8301169050602081019050919050565b600081519050919050565b600082825260208201905092915050565b600061138c82611443565b915061139783611443565b92508260ff038211156113ad576113ac611537565b5b828201905092915050565b60006113c382611443565b91506113ce83611443565b9250826113de576113dd611566565b5b828204905092915050565b60006113f482611419565b9050919050565b600061140682611419565b9050919050565b60008115159050919050565b600073ffffffffffffffffffffffffffffffffffffffff82169050919050565b6000819050919050565b600060ff82169050919050565b82818337600083830152505050565b60005b8381101561147d578082015181840152602081019050611462565b8381111561148c576000848401525b50505050565b600060028204905060018216806114aa57607f821691505b602082108114156114be576114bd611595565b5b50919050565b60006114cf82611439565b91507fffffffffffffffffffffffffffffffffffffffffffffffffffffffffffffffff82141561150257611501611537565b5b600182019050919050565b600061151882611443565b915060ff82141561152c5761152b611537565b5b600182019050919050565b7f4e487b7100000000000000000000000000000000000000000000000000000000600052601160045260246000fd5b7f4e487b7100000000000000000000000000000000000000000000000000000000600052601260045260246000fd5b7f4e487b7100000000000000000000000000000000000000000000000000000000600052602260045260246000fd5b7f4e487b7100000000000000000000000000000000000000000000000000000000600052604160045260246000fd5b6000601f19601f8301169050919050565b61160d816113e9565b811461161857600080fd5b50565b61162481611439565b811461162f57600080fd5b50565b61163b81611443565b811461164657600080fd5b5056fea2646970667358221220ad59de8cf7addcf27694467abcb87a3db1b9e54a7900341ceddbbab5789bbf1b64736f6c63430008000033",
  "linkReferences": {},
  "deployedLinkReferences": {}
}